{
  "_format": "hh-sol-artifact-1",
  "contractName": "Create",
  "sourceName": "contracts/Election.sol",
  "abi": [
    {
      "inputs": [],
      "stateMutability": "nonpayable",
      "type": "constructor"
    },
    {
      "anonymous": false,
      "inputs": [
        {
          "indexed": true,
          "internalType": "uint256",
          "name": "candidateId",
          "type": "uint256"
        },
        {
          "indexed": false,
          "internalType": "address",
          "name": "_address",
          "type": "address"
        },
        {
          "indexed": false,
          "internalType": "string",
          "name": "age",
          "type": "string"
        },
        {
          "indexed": false,
          "internalType": "string",
          "name": "name",
          "type": "string"
        },
        {
          "indexed": false,
          "internalType": "string",
          "name": "image",
          "type": "string"
        },
        {
          "indexed": false,
          "internalType": "uint256",
          "name": "voterCount",
          "type": "uint256"
        },
        {
          "indexed": false,
          "internalType": "string",
          "name": "ipfs",
          "type": "string"
        }
      ],
      "name": "CandidateCreate",
      "type": "event"
    },
    {
      "anonymous": false,
      "inputs": [
        {
          "indexed": true,
          "internalType": "uint256",
          "name": "voter_voterid",
          "type": "uint256"
        },
        {
          "indexed": false,
          "internalType": "string",
          "name": "voter_name",
          "type": "string"
        },
        {
          "indexed": false,
          "internalType": "string",
          "name": "voter_image",
          "type": "string"
        },
        {
          "indexed": false,
          "internalType": "address",
          "name": "voter_address",
          "type": "address"
        },
        {
          "indexed": false,
          "internalType": "uint256",
          "name": "voter_allowed",
          "type": "uint256"
        },
        {
          "indexed": false,
          "internalType": "bool",
          "name": "voter_voted",
          "type": "bool"
        },
        {
          "indexed": false,
          "internalType": "uint256",
          "name": "voter_vote",
          "type": "uint256"
        },
        {
          "indexed": false,
          "internalType": "string",
          "name": "voter_ipfs",
          "type": "string"
        }
      ],
      "name": "VoterCreate",
      "type": "event"
    },
    {
      "inputs": [],
      "name": "_candidateId",
      "outputs": [
        {
          "internalType": "uint256",
          "name": "_value",
          "type": "uint256"
        }
      ],
      "stateMutability": "view",
      "type": "function"
    },
    {
      "inputs": [],
      "name": "_voterId",
      "outputs": [
        {
          "internalType": "uint256",
          "name": "_value",
          "type": "uint256"
        }
      ],
      "stateMutability": "view",
      "type": "function"
    },
    {
      "inputs": [
        {
          "internalType": "uint256",
          "name": "",
          "type": "uint256"
        }
      ],
      "name": "candidateAddress",
      "outputs": [
        {
          "internalType": "address",
          "name": "",
          "type": "address"
        }
      ],
      "stateMutability": "view",
      "type": "function"
    },
    {
      "inputs": [
        {
          "internalType": "address",
          "name": "",
          "type": "address"
        }
      ],
      "name": "candidates",
      "outputs": [
        {
          "internalType": "uint256",
          "name": "candidateId",
          "type": "uint256"
        },
        {
          "internalType": "string",
          "name": "age",
          "type": "string"
        },
        {
          "internalType": "string",
          "name": "name",
          "type": "string"
        },
        {
          "internalType": "string",
          "name": "image",
          "type": "string"
        },
        {
          "internalType": "uint256",
          "name": "voterCount",
          "type": "uint256"
        },
        {
          "internalType": "address",
          "name": "_address",
          "type": "address"
        },
        {
          "internalType": "string",
          "name": "ipfs",
          "type": "string"
        }
      ],
      "stateMutability": "view",
      "type": "function"
    },
    {
      "inputs": [],
      "name": "getCandidate",
      "outputs": [
        {
          "internalType": "address[]",
          "name": "",
          "type": "address[]"
        }
      ],
      "stateMutability": "view",
      "type": "function"
    },
    {
      "inputs": [
        {
          "internalType": "address",
          "name": "_address",
          "type": "address"
        }
      ],
      "name": "getCandidateData",
      "outputs": [
        {
          "internalType": "string",
          "name": "",
          "type": "string"
        },
        {
          "internalType": "string",
          "name": "",
          "type": "string"
        },
        {
          "internalType": "uint256",
          "name": "",
          "type": "uint256"
        },
        {
          "internalType": "string",
          "name": "",
          "type": "string"
        },
        {
          "internalType": "uint256",
          "name": "",
          "type": "uint256"
        },
        {
          "internalType": "string",
          "name": "",
          "type": "string"
        },
        {
          "internalType": "address",
          "name": "",
          "type": "address"
        }
      ],
      "stateMutability": "view",
      "type": "function"
    },
    {
      "inputs": [],
      "name": "getCandidateLength",
      "outputs": [
        {
          "internalType": "uint256",
          "name": "",
          "type": "uint256"
        }
      ],
      "stateMutability": "view",
      "type": "function"
    },
    {
      "inputs": [],
      "name": "getVotedVoterList",
      "outputs": [
        {
          "internalType": "address[]",
          "name": "",
          "type": "address[]"
        }
      ],
      "stateMutability": "view",
      "type": "function"
    },
    {
      "inputs": [
        {
          "internalType": "address",
          "name": "_address",
          "type": "address"
        }
      ],
      "name": "getVoterData",
      "outputs": [
        {
          "internalType": "uint256",
          "name": "",
          "type": "uint256"
        },
        {
          "internalType": "uint256",
          "name": "",
          "type": "uint256"
        },
        {
          "internalType": "string",
          "name": "",
          "type": "string"
        },
        {
          "internalType": "string",
          "name": "",
          "type": "string"
        },
        {
          "internalType": "address",
          "name": "",
          "type": "address"
        },
        {
          "internalType": "bool",
          "name": "",
          "type": "bool"
        },
        {
          "internalType": "string",
          "name": "",
          "type": "string"
        }
      ],
      "stateMutability": "view",
      "type": "function"
    },
    {
      "inputs": [],
      "name": "getVoterLength",
      "outputs": [
        {
          "internalType": "uint256",
          "name": "",
          "type": "uint256"
        }
      ],
      "stateMutability": "view",
      "type": "function"
    },
    {
      "inputs": [],
      "name": "getVoterList",
      "outputs": [
        {
          "internalType": "address[]",
          "name": "",
          "type": "address[]"
        }
      ],
      "stateMutability": "view",
      "type": "function"
    },
    {
      "inputs": [
        {
          "internalType": "address",
          "name": "_address",
          "type": "address"
        },
        {
          "internalType": "string",
          "name": "_age",
          "type": "string"
        },
        {
          "internalType": "string",
          "name": "_name",
          "type": "string"
        },
        {
          "internalType": "string",
          "name": "_image",
          "type": "string"
        },
        {
          "internalType": "string",
          "name": "_ipfs",
          "type": "string"
        }
      ],
      "name": "setCandidate",
      "outputs": [],
      "stateMutability": "nonpayable",
      "type": "function"
    },
    {
      "inputs": [
        {
          "internalType": "address",
          "name": "_candidateAddress",
          "type": "address"
        },
        {
          "internalType": "uint256",
          "name": "_candidateVoteId",
          "type": "uint256"
        }
      ],
      "name": "vote",
      "outputs": [],
      "stateMutability": "nonpayable",
      "type": "function"
    },
    {
      "inputs": [
        {
          "internalType": "address",
          "name": "_address",
          "type": "address"
        }
      ],
      "name": "voteCount",
      "outputs": [
        {
          "internalType": "uint256",
          "name": "",
          "type": "uint256"
        }
      ],
      "stateMutability": "view",
      "type": "function"
    },
    {
      "inputs": [
        {
          "internalType": "uint256",
          "name": "",
          "type": "uint256"
        }
      ],
      "name": "votedVoters",
      "outputs": [
        {
          "internalType": "address",
          "name": "",
          "type": "address"
        }
      ],
      "stateMutability": "view",
      "type": "function"
    },
    {
      "inputs": [
        {
          "internalType": "address",
          "name": "_address",
          "type": "address"
        },
        {
          "internalType": "string",
          "name": "_name",
          "type": "string"
        },
        {
          "internalType": "string",
          "name": "_image",
          "type": "string"
        },
        {
          "internalType": "string",
          "name": "_ipfs",
          "type": "string"
        }
      ],
      "name": "voterRight",
      "outputs": [],
      "stateMutability": "nonpayable",
      "type": "function"
    },
    {
      "inputs": [
        {
          "internalType": "address",
          "name": "",
          "type": "address"
        }
      ],
      "name": "voters",
      "outputs": [
        {
          "internalType": "uint256",
          "name": "voter_voterid",
          "type": "uint256"
        },
        {
          "internalType": "string",
          "name": "voter_name",
          "type": "string"
        },
        {
          "internalType": "string",
          "name": "voter_image",
          "type": "string"
        },
        {
          "internalType": "address",
          "name": "voter_address",
          "type": "address"
        },
        {
          "internalType": "uint256",
          "name": "voter_allowed",
          "type": "uint256"
        },
        {
          "internalType": "bool",
          "name": "voter_voted",
          "type": "bool"
        },
        {
          "internalType": "uint256",
          "name": "voter_vote",
          "type": "uint256"
        },
        {
          "internalType": "string",
          "name": "voter_ipfs",
          "type": "string"
        }
      ],
      "stateMutability": "view",
      "type": "function"
    },
    {
      "inputs": [
        {
          "internalType": "uint256",
          "name": "",
          "type": "uint256"
        }
      ],
      "name": "votersAddress",
      "outputs": [
        {
          "internalType": "address",
          "name": "",
          "type": "address"
        }
      ],
      "stateMutability": "view",
      "type": "function"
    },
    {
      "inputs": [],
      "name": "votingOrganizer",
      "outputs": [
        {
          "internalType": "address",
          "name": "",
          "type": "address"
        }
      ],
      "stateMutability": "view",
      "type": "function"
    },
    {
      "inputs": [
        {
          "internalType": "address",
          "name": "_address",
          "type": "address"
        }
      ],
      "name": "winnerName",
      "outputs": [
        {
          "internalType": "string",
          "name": "",
          "type": "string"
        }
      ],
      "stateMutability": "view",
      "type": "function"
    }
  ],
  "bytecode": "0x608060405234801561001057600080fd5b5033600260006101000a81548173ffffffffffffffffffffffffffffffffffffffff021916908373ffffffffffffffffffffffffffffffffffffffff1602179055506127c2806100616000396000f3fe608060405234801561001057600080fd5b506004361061012c5760003560e01c80637831ffb3116100ad578063a738896711610071578063a7388967146103aa578063b28d92ae146103c8578063b9be3152146103e6578063c91ec71214610404578063f7522a83146104205761012c565b80637831ffb3146102b95780638ab66a90146102e95780638e9456851461031f5780638fb4cd801461033d578063a3ec138d146103735761012c565b80635cc48aa7116100f45780635cc48aa7146102015780635e3cd7bc1461021f5780635f74bbde1461024f5780636d143a551461026b57806370218b851461029b5761012c565b80630361419e1461013157806305ad45a41461014d5780632a466ac71461016b5780633a88251a146101a157806343242daa146101d1575b600080fd5b61014b60048036038101906101469190611bdf565b61043e565b005b610155610615565b6040516101629190611cb3565b60405180910390f35b61018560048036038101906101809190611cce565b610622565b6040516101989796959493929190611d89565b60405180910390f35b6101bb60048036038101906101b69190611e40565b610a69565b6040516101c89190611e6d565b60405180910390f35b6101eb60048036038101906101e69190611e40565b610aa8565b6040516101f89190611e6d565b60405180910390f35b610209610ae7565b6040516102169190611e6d565b60405180910390f35b61023960048036038101906102349190611cce565b610b0d565b6040516102469190611cb3565b60405180910390f35b61026960048036038101906102649190611e88565b610b59565b005b61028560048036038101906102809190611cce565b610d20565b6040516102929190611ec8565b60405180910390f35b6102a3610df4565b6040516102b09190611fa8565b60405180910390f35b6102d360048036038101906102ce9190611e40565b610e82565b6040516102e09190611e6d565b60405180910390f35b61030360048036038101906102fe9190611cce565b610ec1565b6040516103169796959493929190611fca565b60405180910390f35b610327611143565b6040516103349190611fa8565b60405180910390f35b61035760048036038101906103529190611cce565b6111d1565b60405161036a9796959493929190612070565b60405180910390f35b61038d60048036038101906103889190611cce565b611598565b6040516103a19897969594939291906120f4565b60405180910390f35b6103b26117a5565b6040516103bf9190611cb3565b60405180910390f35b6103d06117b1565b6040516103dd9190611fa8565b60405180910390f35b6103ee61183f565b6040516103fb9190611cb3565b60405180910390f35b61041e60048036038101906104199190612187565b61184b565b005b6104286119f6565b6040516104359190611cb3565b60405180910390f35b6104486000611a03565b60006104546000611a19565b90506000600760008773ffffffffffffffffffffffffffffffffffffffff1673ffffffffffffffffffffffffffffffffffffffff168152602001908152602001600020905060018160040181905550848160010190816104b4919061247e565b50838160020190816104c6919061247e565b50858160030160006101000a81548173ffffffffffffffffffffffffffffffffffffffff021916908373ffffffffffffffffffffffffffffffffffffffff1602179055508181600001819055506103e8816006018190555060008160050160006101000a81548160ff0219169083151502179055508281600701908161054c919061247e565b506006869080600181540180825580915050600190039060005260206000200160009091909190916101000a81548173ffffffffffffffffffffffffffffffffffffffff021916908373ffffffffffffffffffffffffffffffffffffffff160217905550817f0d1b980df89c1a3954567752ee1e92bdf546b205af1cc94b471ae6e71b8f859c86868985600401548660050160009054906101000a900460ff1687600601548a6040516106059796959493929190612550565b60405180910390a2505050505050565b6000600680549050905090565b60608060006060600060606000600460008973ffffffffffffffffffffffffffffffffffffffff1673ffffffffffffffffffffffffffffffffffffffff168152602001908152602001600020600101600460008a73ffffffffffffffffffffffffffffffffffffffff1673ffffffffffffffffffffffffffffffffffffffff168152602001908152602001600020600201600460008b73ffffffffffffffffffffffffffffffffffffffff1673ffffffffffffffffffffffffffffffffffffffff16815260200190815260200160002060000154600460008c73ffffffffffffffffffffffffffffffffffffffff1673ffffffffffffffffffffffffffffffffffffffff168152602001908152602001600020600301600460008d73ffffffffffffffffffffffffffffffffffffffff1673ffffffffffffffffffffffffffffffffffffffff16815260200190815260200160002060040154600460008e73ffffffffffffffffffffffffffffffffffffffff1673ffffffffffffffffffffffffffffffffffffffff168152602001908152602001600020600601600460008f73ffffffffffffffffffffffffffffffffffffffff1673ffffffffffffffffffffffffffffffffffffffff16815260200190815260200160002060050160009054906101000a900473ffffffffffffffffffffffffffffffffffffffff1686805461082c906122a1565b80601f0160208091040260200160405190810160405280929190818152602001828054610858906122a1565b80156108a55780601f1061087a576101008083540402835291602001916108a5565b820191906000526020600020905b81548152906001019060200180831161088857829003601f168201915b505050505096508580546108b8906122a1565b80601f01602080910402602001604051908101604052809291908181526020018280546108e4906122a1565b80156109315780601f1061090657610100808354040283529160200191610931565b820191906000526020600020905b81548152906001019060200180831161091457829003601f168201915b50505050509550838054610944906122a1565b80601f0160208091040260200160405190810160405280929190818152602001828054610970906122a1565b80156109bd5780601f10610992576101008083540402835291602001916109bd565b820191906000526020600020905b8154815290600101906020018083116109a057829003601f168201915b505050505093508180546109d0906122a1565b80601f01602080910402602001604051908101604052809291908181526020018280546109fc906122a1565b8015610a495780601f10610a1e57610100808354040283529160200191610a49565b820191906000526020600020905b815481529060010190602001808311610a2c57829003601f168201915b505050505091509650965096509650965096509650919395979092949650565b60038181548110610a7957600080fd5b906000526020600020016000915054906101000a900473ffffffffffffffffffffffffffffffffffffffff1681565b60068181548110610ab857600080fd5b906000526020600020016000915054906101000a900473ffffffffffffffffffffffffffffffffffffffff1681565b600260009054906101000a900473ffffffffffffffffffffffffffffffffffffffff1681565b6000600460008373ffffffffffffffffffffffffffffffffffffffff1673ffffffffffffffffffffffffffffffffffffffff168152602001908152602001600020600401549050919050565b6000600760003373ffffffffffffffffffffffffffffffffffffffff1673ffffffffffffffffffffffffffffffffffffffff16815260200190815260200160002090508060050160009054906101000a900460ff1615610bee576040517f08c379a0000000000000000000000000000000000000000000000000000000008152600401610be590612620565b60405180910390fd5b6000816004015403610c35576040517f08c379a0000000000000000000000000000000000000000000000000000000008152600401610c2c9061268c565b60405180910390fd5b60018160050160006101000a81548160ff0219169083151502179055508181600601819055506005339080600181540180825580915050600190039060005260206000200160009091909190916101000a81548173ffffffffffffffffffffffffffffffffffffffff021916908373ffffffffffffffffffffffffffffffffffffffff1602179055508060040154600460008573ffffffffffffffffffffffffffffffffffffffff1673ffffffffffffffffffffffffffffffffffffffff1681526020019081526020016000206004016000828254610d1491906126db565b92505081905550505050565b6060600460008373ffffffffffffffffffffffffffffffffffffffff1673ffffffffffffffffffffffffffffffffffffffff1681526020019081526020016000206002018054610d6f906122a1565b80601f0160208091040260200160405190810160405280929190818152602001828054610d9b906122a1565b8015610de85780601f10610dbd57610100808354040283529160200191610de8565b820191906000526020600020905b815481529060010190602001808311610dcb57829003601f168201915b50505050509050919050565b60606003805480602002602001604051908101604052809291908181526020018280548015610e7857602002820191906000526020600020905b8160009054906101000a900473ffffffffffffffffffffffffffffffffffffffff1673ffffffffffffffffffffffffffffffffffffffff1681526020019060010190808311610e2e575b5050505050905090565b60058181548110610e9257600080fd5b906000526020600020016000915054906101000a900473ffffffffffffffffffffffffffffffffffffffff1681565b6004602052806000526040600020600091509050806000015490806001018054610eea906122a1565b80601f0160208091040260200160405190810160405280929190818152602001828054610f16906122a1565b8015610f635780601f10610f3857610100808354040283529160200191610f63565b820191906000526020600020905b815481529060010190602001808311610f4657829003601f168201915b505050505090806002018054610f78906122a1565b80601f0160208091040260200160405190810160405280929190818152602001828054610fa4906122a1565b8015610ff15780601f10610fc657610100808354040283529160200191610ff1565b820191906000526020600020905b815481529060010190602001808311610fd457829003601f168201915b505050505090806003018054611006906122a1565b80601f0160208091040260200160405190810160405280929190818152602001828054611032906122a1565b801561107f5780601f106110545761010080835404028352916020019161107f565b820191906000526020600020905b81548152906001019060200180831161106257829003601f168201915b5050505050908060040154908060050160009054906101000a900473ffffffffffffffffffffffffffffffffffffffff16908060060180546110c0906122a1565b80601f01602080910402602001604051908101604052809291908181526020018280546110ec906122a1565b80156111395780601f1061110e57610100808354040283529160200191611139565b820191906000526020600020905b81548152906001019060200180831161111c57829003601f168201915b5050505050905087565b606060058054806020026020016040519081016040528092919081815260200182805480156111c757602002820191906000526020600020905b8160009054906101000a900473ffffffffffffffffffffffffffffffffffffffff1673ffffffffffffffffffffffffffffffffffffffff168152602001906001019080831161117d575b5050505050905090565b6000806060806000806060600760008973ffffffffffffffffffffffffffffffffffffffff1673ffffffffffffffffffffffffffffffffffffffff16815260200190815260200160002060000154600760008a73ffffffffffffffffffffffffffffffffffffffff1673ffffffffffffffffffffffffffffffffffffffff16815260200190815260200160002060040154600760008b73ffffffffffffffffffffffffffffffffffffffff1673ffffffffffffffffffffffffffffffffffffffff168152602001908152602001600020600101600760008c73ffffffffffffffffffffffffffffffffffffffff1673ffffffffffffffffffffffffffffffffffffffff168152602001908152602001600020600201600760008d73ffffffffffffffffffffffffffffffffffffffff1673ffffffffffffffffffffffffffffffffffffffff16815260200190815260200160002060030160009054906101000a900473ffffffffffffffffffffffffffffffffffffffff16600760008e73ffffffffffffffffffffffffffffffffffffffff1673ffffffffffffffffffffffffffffffffffffffff16815260200190815260200160002060050160009054906101000a900460ff16600760008f73ffffffffffffffffffffffffffffffffffffffff1673ffffffffffffffffffffffffffffffffffffffff1681526020019081526020016000206007018480546113e7906122a1565b80601f0160208091040260200160405190810160405280929190818152602001828054611413906122a1565b80156114605780601f1061143557610100808354040283529160200191611460565b820191906000526020600020905b81548152906001019060200180831161144357829003601f168201915b50505050509450838054611473906122a1565b80601f016020809104026020016040519081016040528092919081815260200182805461149f906122a1565b80156114ec5780601f106114c1576101008083540402835291602001916114ec565b820191906000526020600020905b8154815290600101906020018083116114cf57829003601f168201915b505050505093508080546114ff906122a1565b80601f016020809104026020016040519081016040528092919081815260200182805461152b906122a1565b80156115785780601f1061154d57610100808354040283529160200191611578565b820191906000526020600020905b81548152906001019060200180831161155b57829003601f168201915b505050505090509650965096509650965096509650919395979092949650565b60076020528060005260406000206000915090508060000154908060010180546115c1906122a1565b80601f01602080910402602001604051908101604052809291908181526020018280546115ed906122a1565b801561163a5780601f1061160f5761010080835404028352916020019161163a565b820191906000526020600020905b81548152906001019060200180831161161d57829003601f168201915b50505050509080600201805461164f906122a1565b80601f016020809104026020016040519081016040528092919081815260200182805461167b906122a1565b80156116c85780601f1061169d576101008083540402835291602001916116c8565b820191906000526020600020905b8154815290600101906020018083116116ab57829003601f168201915b5050505050908060030160009054906101000a900473ffffffffffffffffffffffffffffffffffffffff16908060040154908060050160009054906101000a900460ff1690806006015490806007018054611722906122a1565b80601f016020809104026020016040519081016040528092919081815260200182805461174e906122a1565b801561179b5780601f106117705761010080835404028352916020019161179b565b820191906000526020600020905b81548152906001019060200180831161177e57829003601f168201915b5050505050905088565b60018060000154905081565b6060600680548060200260200160405190810160405280929190818152602001828054801561183557602002820191906000526020600020905b8160009054906101000a900473ffffffffffffffffffffffffffffffffffffffff1673ffffffffffffffffffffffffffffffffffffffff16815260200190600101908083116117eb575b5050505050905090565b60008060000154905081565b6118556001611a03565b60006118616001611a19565b90506000600460008873ffffffffffffffffffffffffffffffffffffffff1673ffffffffffffffffffffffffffffffffffffffff1681526020019081526020016000209050868160050160006101000a81548173ffffffffffffffffffffffffffffffffffffffff021916908373ffffffffffffffffffffffffffffffffffffffff160217905550858160010190816118fa919061247e565b508481600201908161190c919061247e565b5081816000018190555083816003019081611927919061247e565b506000816004018190555082816006019081611943919061247e565b506003879080600181540180825580915050600190039060005260206000200160009091909190916101000a81548173ffffffffffffffffffffffffffffffffffffffff021916908373ffffffffffffffffffffffffffffffffffffffff160217905550817ffb888ce8fc26034ca4f3c3c11577f80367a73cff9cc15d9a30a3b5211505b4ea888888888660040154896040516119e59695949392919061270f565b60405180910390a250505050505050565b6000600380549050905090565b6001816000016000828254019250508190555050565b600081600001549050919050565b6000604051905090565b600080fd5b600080fd5b600073ffffffffffffffffffffffffffffffffffffffff82169050919050565b6000611a6682611a3b565b9050919050565b611a7681611a5b565b8114611a8157600080fd5b50565b600081359050611a9381611a6d565b92915050565b600080fd5b600080fd5b6000601f19601f8301169050919050565b7f4e487b7100000000000000000000000000000000000000000000000000000000600052604160045260246000fd5b611aec82611aa3565b810181811067ffffffffffffffff82111715611b0b57611b0a611ab4565b5b80604052505050565b6000611b1e611a27565b9050611b2a8282611ae3565b919050565b600067ffffffffffffffff821115611b4a57611b49611ab4565b5b611b5382611aa3565b9050602081019050919050565b82818337600083830152505050565b6000611b82611b7d84611b2f565b611b14565b905082815260208101848484011115611b9e57611b9d611a9e565b5b611ba9848285611b60565b509392505050565b600082601f830112611bc657611bc5611a99565b5b8135611bd6848260208601611b6f565b91505092915050565b60008060008060808587031215611bf957611bf8611a31565b5b6000611c0787828801611a84565b945050602085013567ffffffffffffffff811115611c2857611c27611a36565b5b611c3487828801611bb1565b935050604085013567ffffffffffffffff811115611c5557611c54611a36565b5b611c6187828801611bb1565b925050606085013567ffffffffffffffff811115611c8257611c81611a36565b5b611c8e87828801611bb1565b91505092959194509250565b6000819050919050565b611cad81611c9a565b82525050565b6000602082019050611cc86000830184611ca4565b92915050565b600060208284031215611ce457611ce3611a31565b5b6000611cf284828501611a84565b91505092915050565b600081519050919050565b600082825260208201905092915050565b60005b83811015611d35578082015181840152602081019050611d1a565b60008484015250505050565b6000611d4c82611cfb565b611d568185611d06565b9350611d66818560208601611d17565b611d6f81611aa3565b840191505092915050565b611d8381611a5b565b82525050565b600060e0820190508181036000830152611da3818a611d41565b90508181036020830152611db78189611d41565b9050611dc66040830188611ca4565b8181036060830152611dd88187611d41565b9050611de76080830186611ca4565b81810360a0830152611df98185611d41565b9050611e0860c0830184611d7a565b98975050505050505050565b611e1d81611c9a565b8114611e2857600080fd5b50565b600081359050611e3a81611e14565b92915050565b600060208284031215611e5657611e55611a31565b5b6000611e6484828501611e2b565b91505092915050565b6000602082019050611e826000830184611d7a565b92915050565b60008060408385031215611e9f57611e9e611a31565b5b6000611ead85828601611a84565b9250506020611ebe85828601611e2b565b9150509250929050565b60006020820190508181036000830152611ee28184611d41565b905092915050565b600081519050919050565b600082825260208201905092915050565b6000819050602082019050919050565b611f1f81611a5b565b82525050565b6000611f318383611f16565b60208301905092915050565b6000602082019050919050565b6000611f5582611eea565b611f5f8185611ef5565b9350611f6a83611f06565b8060005b83811015611f9b578151611f828882611f25565b9750611f8d83611f3d565b925050600181019050611f6e565b5085935050505092915050565b60006020820190508181036000830152611fc28184611f4a565b905092915050565b600060e082019050611fdf600083018a611ca4565b8181036020830152611ff18189611d41565b905081810360408301526120058188611d41565b905081810360608301526120198187611d41565b90506120286080830186611ca4565b61203560a0830185611d7a565b81810360c08301526120478184611d41565b905098975050505050505050565b60008115159050919050565b61206a81612055565b82525050565b600060e082019050612085600083018a611ca4565b6120926020830189611ca4565b81810360408301526120a48188611d41565b905081810360608301526120b88187611d41565b90506120c76080830186611d7a565b6120d460a0830185612061565b81810360c08301526120e68184611d41565b905098975050505050505050565b60006101008201905061210a600083018b611ca4565b818103602083015261211c818a611d41565b905081810360408301526121308189611d41565b905061213f6060830188611d7a565b61214c6080830187611ca4565b61215960a0830186612061565b61216660c0830185611ca4565b81810360e08301526121788184611d41565b90509998505050505050505050565b600080600080600060a086880312156121a3576121a2611a31565b5b60006121b188828901611a84565b955050602086013567ffffffffffffffff8111156121d2576121d1611a36565b5b6121de88828901611bb1565b945050604086013567ffffffffffffffff8111156121ff576121fe611a36565b5b61220b88828901611bb1565b935050606086013567ffffffffffffffff81111561222c5761222b611a36565b5b61223888828901611bb1565b925050608086013567ffffffffffffffff81111561225957612258611a36565b5b61226588828901611bb1565b9150509295509295909350565b7f4e487b7100000000000000000000000000000000000000000000000000000000600052602260045260246000fd5b600060028204905060018216806122b957607f821691505b6020821081036122cc576122cb612272565b5b50919050565b60008190508160005260206000209050919050565b60006020601f8301049050919050565b600082821b905092915050565b6000600883026123347fffffffffffffffffffffffffffffffffffffffffffffffffffffffffffffffff826122f7565b61233e86836122f7565b95508019841693508086168417925050509392505050565b6000819050919050565b600061237b61237661237184611c9a565b612356565b611c9a565b9050919050565b6000819050919050565b61239583612360565b6123a96123a182612382565b848454612304565b825550505050565b600090565b6123be6123b1565b6123c981848461238c565b505050565b5b818110156123ed576123e26000826123b6565b6001810190506123cf565b5050565b601f82111561243257612403816122d2565b61240c846122e7565b8101602085101561241b578190505b61242f612427856122e7565b8301826123ce565b50505b505050565b600082821c905092915050565b600061245560001984600802612437565b1980831691505092915050565b600061246e8383612444565b9150826002028217905092915050565b61248782611cfb565b67ffffffffffffffff8111156124a05761249f611ab4565b5b6124aa82546122a1565b6124b58282856123f1565b600060209050601f8311600181146124e857600084156124d6578287015190505b6124e08582612462565b865550612548565b601f1984166124f6866122d2565b60005b8281101561251e578489015182556001820191506020850194506020810190506124f9565b8683101561253b5784890151612537601f891682612444565b8355505b6001600288020188555050505b505050505050565b600060e082019050818103600083015261256a818a611d41565b9050818103602083015261257e8189611d41565b905061258d6040830188611d7a565b61259a6060830187611ca4565b6125a76080830186612061565b6125b460a0830185611ca4565b81810360c08301526125c68184611d41565b905098975050505050505050565b7f596f75206861766520616c726561647920766f74656400000000000000000000600082015250565b600061260a601683611d06565b9150612615826125d4565b602082019050919050565b60006020820190508181036000830152612639816125fd565b9050919050565b7f596f752068617665206e6f20726967687420746f20766f746500000000000000600082015250565b6000612676601983611d06565b915061268182612640565b602082019050919050565b600060208201905081810360008301526126a581612669565b9050919050565b7f4e487b7100000000000000000000000000000000000000000000000000000000600052601160045260246000fd5b60006126e682611c9a565b91506126f183611c9a565b9250828201905080821115612709576127086126ac565b5b92915050565b600060c0820190506127246000830189611d7a565b81810360208301526127368188611d41565b9050818103604083015261274a8187611d41565b9050818103606083015261275e8186611d41565b905061276d6080830185611ca4565b81810360a083015261277f8184611d41565b905097965050505050505056fea26469706673582212202bc92b6eb0b1e62d63aa66f7d5ed36c73e5010fc4546d3178a23e96b65532e2c64736f6c63430008120033",
  "linkReferences": {},
  "deployedLinkReferences": {}
}